{
  "_format": "hh-sol-artifact-1",
  "contractName": "MyNFT",
  "sourceName": "contracts/MyNFT.sol",
  "abi": [
    {
      "inputs": [],
      "stateMutability": "nonpayable",
      "type": "constructor"
    },
    {
      "anonymous": false,
      "inputs": [
        {
          "indexed": true,
          "internalType": "address",
          "name": "owner",
          "type": "address"
        },
        {
          "indexed": true,
          "internalType": "address",
          "name": "approved",
          "type": "address"
        },
        {
          "indexed": true,
          "internalType": "uint256",
          "name": "tokenId",
          "type": "uint256"
        }
      ],
      "name": "Approval",
      "type": "event"
    },
    {
      "anonymous": false,
      "inputs": [
        {
          "indexed": true,
          "internalType": "address",
          "name": "owner",
          "type": "address"
        },
        {
          "indexed": true,
          "internalType": "address",
          "name": "operator",
          "type": "address"
        },
        {
          "indexed": false,
          "internalType": "bool",
          "name": "approved",
          "type": "bool"
        }
      ],
      "name": "ApprovalForAll",
      "type": "event"
    },
    {
      "anonymous": false,
      "inputs": [
        {
          "indexed": true,
          "internalType": "address",
          "name": "previousOwner",
          "type": "address"
        },
        {
          "indexed": true,
          "internalType": "address",
          "name": "newOwner",
          "type": "address"
        }
      ],
      "name": "OwnershipTransferred",
      "type": "event"
    },
    {
      "anonymous": false,
      "inputs": [
        {
          "indexed": true,
          "internalType": "address",
          "name": "from",
          "type": "address"
        },
        {
          "indexed": true,
          "internalType": "address",
          "name": "to",
          "type": "address"
        },
        {
          "indexed": true,
          "internalType": "uint256",
          "name": "tokenId",
          "type": "uint256"
        }
      ],
      "name": "Transfer",
      "type": "event"
    },
    {
      "inputs": [
        {
          "internalType": "address",
          "name": "to",
          "type": "address"
        },
        {
          "internalType": "uint256",
          "name": "tokenId",
          "type": "uint256"
        }
      ],
      "name": "approve",
      "outputs": [],
      "stateMutability": "nonpayable",
      "type": "function"
    },
    {
      "inputs": [
        {
          "internalType": "address",
          "name": "owner",
          "type": "address"
        }
      ],
      "name": "balanceOf",
      "outputs": [
        {
          "internalType": "uint256",
          "name": "",
          "type": "uint256"
        }
      ],
      "stateMutability": "view",
      "type": "function"
    },
    {
      "inputs": [
        {
          "internalType": "uint256",
          "name": "tokenId",
          "type": "uint256"
        }
      ],
      "name": "getApproved",
      "outputs": [
        {
          "internalType": "address",
          "name": "",
          "type": "address"
        }
      ],
      "stateMutability": "view",
      "type": "function"
    },
    {
      "inputs": [],
      "name": "getOwner",
      "outputs": [
        {
          "internalType": "address",
          "name": "",
          "type": "address"
        }
      ],
      "stateMutability": "view",
      "type": "function"
    },
    {
      "inputs": [
        {
          "internalType": "address",
          "name": "owner",
          "type": "address"
        },
        {
          "internalType": "address",
          "name": "operator",
          "type": "address"
        }
      ],
      "name": "isApprovedForAll",
      "outputs": [
        {
          "internalType": "bool",
          "name": "",
          "type": "bool"
        }
      ],
      "stateMutability": "view",
      "type": "function"
    },
    {
      "inputs": [],
      "name": "isOwner",
      "outputs": [
        {
          "internalType": "bool",
          "name": "",
          "type": "bool"
        }
      ],
      "stateMutability": "view",
      "type": "function"
    },
    {
      "inputs": [
        {
          "internalType": "address",
          "name": "recipient",
          "type": "address"
        },
        {
          "internalType": "string",
          "name": "tokenURI",
          "type": "string"
        }
      ],
      "name": "mintNFT",
      "outputs": [
        {
          "internalType": "uint256",
          "name": "",
          "type": "uint256"
        }
      ],
      "stateMutability": "nonpayable",
      "type": "function"
    },
    {
      "inputs": [],
      "name": "name",
      "outputs": [
        {
          "internalType": "string",
          "name": "",
          "type": "string"
        }
      ],
      "stateMutability": "view",
      "type": "function"
    },
    {
      "inputs": [],
      "name": "owner",
      "outputs": [
        {
          "internalType": "address",
          "name": "",
          "type": "address"
        }
      ],
      "stateMutability": "view",
      "type": "function"
    },
    {
      "inputs": [],
      "name": "ownerAddress",
      "outputs": [
        {
          "internalType": "address",
          "name": "",
          "type": "address"
        }
      ],
      "stateMutability": "view",
      "type": "function"
    },
    {
      "inputs": [
        {
          "internalType": "uint256",
          "name": "tokenId",
          "type": "uint256"
        }
      ],
      "name": "ownerOf",
      "outputs": [
        {
          "internalType": "address",
          "name": "",
          "type": "address"
        }
      ],
      "stateMutability": "view",
      "type": "function"
    },
    {
      "inputs": [],
      "name": "renounceOwnership",
      "outputs": [],
      "stateMutability": "nonpayable",
      "type": "function"
    },
    {
      "inputs": [
        {
          "internalType": "address",
          "name": "from",
          "type": "address"
        },
        {
          "internalType": "address",
          "name": "to",
          "type": "address"
        },
        {
          "internalType": "uint256",
          "name": "tokenId",
          "type": "uint256"
        }
      ],
      "name": "safeTransferFrom",
      "outputs": [],
      "stateMutability": "nonpayable",
      "type": "function"
    },
    {
      "inputs": [
        {
          "internalType": "address",
          "name": "from",
          "type": "address"
        },
        {
          "internalType": "address",
          "name": "to",
          "type": "address"
        },
        {
          "internalType": "uint256",
          "name": "tokenId",
          "type": "uint256"
        },
        {
          "internalType": "bytes",
          "name": "_data",
          "type": "bytes"
        }
      ],
      "name": "safeTransferFrom",
      "outputs": [],
      "stateMutability": "nonpayable",
      "type": "function"
    },
    {
      "inputs": [
        {
          "internalType": "address",
          "name": "operator",
          "type": "address"
        },
        {
          "internalType": "bool",
          "name": "approved",
          "type": "bool"
        }
      ],
      "name": "setApprovalForAll",
      "outputs": [],
      "stateMutability": "nonpayable",
      "type": "function"
    },
    {
      "inputs": [
        {
          "internalType": "bytes4",
          "name": "interfaceId",
          "type": "bytes4"
        }
      ],
      "name": "supportsInterface",
      "outputs": [
        {
          "internalType": "bool",
          "name": "",
          "type": "bool"
        }
      ],
      "stateMutability": "view",
      "type": "function"
    },
    {
      "inputs": [],
      "name": "symbol",
      "outputs": [
        {
          "internalType": "string",
          "name": "",
          "type": "string"
        }
      ],
      "stateMutability": "view",
      "type": "function"
    },
    {
      "inputs": [
        {
          "internalType": "uint256",
          "name": "tokenId",
          "type": "uint256"
        }
      ],
      "name": "tokenURI",
      "outputs": [
        {
          "internalType": "string",
          "name": "",
          "type": "string"
        }
      ],
      "stateMutability": "view",
      "type": "function"
    },
    {
      "inputs": [
        {
          "internalType": "address",
          "name": "from",
          "type": "address"
        },
        {
          "internalType": "address",
          "name": "to",
          "type": "address"
        },
        {
          "internalType": "uint256",
          "name": "tokenId",
          "type": "uint256"
        }
      ],
      "name": "transferFrom",
      "outputs": [],
      "stateMutability": "nonpayable",
      "type": "function"
    },
    {
      "inputs": [
        {
          "internalType": "address",
          "name": "newOwner",
          "type": "address"
        }
      ],
      "name": "transferOwnership",
      "outputs": [],
      "stateMutability": "nonpayable",
      "type": "function"
    },
    {
      "inputs": [
        {
          "internalType": "uint256",
          "name": "token_id",
          "type": "uint256"
        }
      ],
      "name": "transferToken",
      "outputs": [
        {
          "internalType": "uint256",
          "name": "",
          "type": "uint256"
        }
      ],
      "stateMutability": "nonpayable",
      "type": "function"
    }
  ],
  "bytecode": "0x60806040523480156200001157600080fd5b506040518060400160405280600581526020017f4d794e46540000000000000000000000000000000000000000000000000000008152506040518060400160405280600381526020017f4e46540000000000000000000000000000000000000000000000000000000000815250816000908051906020019062000096929190620001e7565b508060019080519060200190620000af929190620001e7565b505050620000d2620000c66200011960201b60201c565b6200012160201b60201c565b33600960006101000a81548173ffffffffffffffffffffffffffffffffffffffff021916908373ffffffffffffffffffffffffffffffffffffffff160217905550620002fc565b600033905090565b6000600760009054906101000a900473ffffffffffffffffffffffffffffffffffffffff16905081600760006101000a81548173ffffffffffffffffffffffffffffffffffffffff021916908373ffffffffffffffffffffffffffffffffffffffff1602179055508173ffffffffffffffffffffffffffffffffffffffff168173ffffffffffffffffffffffffffffffffffffffff167f8be0079c531659141344cd1fd0a4f28419497f9722a3daafe3b4186f6b6457e060405160405180910390a35050565b828054620001f59062000297565b90600052602060002090601f01602090048101928262000219576000855562000265565b82601f106200023457805160ff191683800117855562000265565b8280016001018555821562000265579182015b828111156200026457825182559160200191906001019062000247565b5b50905062000274919062000278565b5090565b5b808211156200029357600081600090555060010162000279565b5090565b60006002820490506001821680620002b057607f821691505b60208210811415620002c757620002c6620002cd565b5b50919050565b7f4e487b7100000000000000000000000000000000000000000000000000000000600052602260045260246000fd5b61318f806200030c6000396000f3fe608060405234801561001057600080fd5b50600436106101375760003560e01c80638da5cb5b116100b8578063a22cb4651161007c578063a22cb4651461033e578063b88d4fde1461035a578063c87b56dd14610376578063e985e9c5146103a6578063eacabe14146103d6578063f2fde38b1461040657610137565b80638da5cb5b146102965780638f32d59b146102b45780638f84aa09146102d257806395d89b41146102f05780639fc71b311461030e57610137565b806342842e0e116100ff57806342842e0e146101f25780636352211e1461020e57806370a082311461023e578063715018a61461026e578063893d20e81461027857610137565b806301ffc9a71461013c57806306fdde031461016c578063081812fc1461018a578063095ea7b3146101ba57806323b872dd146101d6575b600080fd5b6101566004803603810190610151919061213e565b610422565b604051610163919061258a565b60405180910390f35b610174610504565b60405161018191906125a5565b60405180910390f35b6101a4600480360381019061019f9190612190565b610596565b6040516101b19190612523565b60405180910390f35b6101d460048036038101906101cf9190612102565b61061b565b005b6101f060048036038101906101eb9190611fa8565b610733565b005b61020c60048036038101906102079190611fa8565b610793565b005b61022860048036038101906102239190612190565b6107b3565b6040516102359190612523565b60405180910390f35b61025860048036038101906102539190611f43565b610865565b6040516102659190612807565b60405180910390f35b61027661091d565b005b6102806109a5565b60405161028d9190612523565b60405180910390f35b61029e6109cf565b6040516102ab9190612523565b60405180910390f35b6102bc6109f9565b6040516102c9919061258a565b60405180910390f35b6102da610a62565b6040516102e79190612523565b60405180910390f35b6102f8610a88565b60405161030591906125a5565b60405180910390f35b61032860048036038101906103239190612190565b610b1a565b6040516103359190612807565b60405180910390f35b61035860048036038101906103539190612072565b610b51565b005b610374600480360381019061036f9190611ff7565b610b67565b005b610390600480360381019061038b9190612190565b610bc9565b60405161039d91906125a5565b60405180910390f35b6103c060048036038101906103bb9190611f6c565b610d1b565b6040516103cd919061258a565b60405180910390f35b6103f060048036038101906103eb91906120ae565b610daf565b6040516103fd9190612807565b60405180910390f35b610420600480360381019061041b9190611f43565b610e63565b005b60007f80ac58cd000000000000000000000000000000000000000000000000000000007bffffffffffffffffffffffffffffffffffffffffffffffffffffffff1916827bffffffffffffffffffffffffffffffffffffffffffffffffffffffff191614806104ed57507f5b5e139f000000000000000000000000000000000000000000000000000000007bffffffffffffffffffffffffffffffffffffffffffffffffffffffff1916827bffffffffffffffffffffffffffffffffffffffffffffffffffffffff1916145b806104fd57506104fc82610f5b565b5b9050919050565b60606000805461051390612a5d565b80601f016020809104026020016040519081016040528092919081815260200182805461053f90612a5d565b801561058c5780601f106105615761010080835404028352916020019161058c565b820191906000526020600020905b81548152906001019060200180831161056f57829003601f168201915b5050505050905090565b60006105a182610fc5565b6105e0576040517f08c379a00000000000000000000000000000000000000000000000000000000081526004016105d790612767565b60405180910390fd5b6004600083815260200190815260200160002060009054906101000a900473ffffffffffffffffffffffffffffffffffffffff169050919050565b6000610626826107b3565b90508073ffffffffffffffffffffffffffffffffffffffff168373ffffffffffffffffffffffffffffffffffffffff161415610697576040517f08c379a000000000000000000000000000000000000000000000000000000000815260040161068e906127c7565b60405180910390fd5b8073ffffffffffffffffffffffffffffffffffffffff166106b6611031565b73ffffffffffffffffffffffffffffffffffffffff1614806106e557506106e4816106df611031565b610d1b565b5b610724576040517f08c379a000000000000000000000000000000000000000000000000000000000815260040161071b906126a7565b60405180910390fd5b61072e8383611039565b505050565b61074461073e611031565b826110f2565b610783576040517f08c379a000000000000000000000000000000000000000000000000000000000815260040161077a906127e7565b60405180910390fd5b61078e8383836111d0565b505050565b6107ae83838360405180602001604052806000815250610b67565b505050565b6000806002600084815260200190815260200160002060009054906101000a900473ffffffffffffffffffffffffffffffffffffffff169050600073ffffffffffffffffffffffffffffffffffffffff168173ffffffffffffffffffffffffffffffffffffffff16141561085c576040517f08c379a0000000000000000000000000000000000000000000000000000000008152600401610853906126e7565b60405180910390fd5b80915050919050565b60008073ffffffffffffffffffffffffffffffffffffffff168273ffffffffffffffffffffffffffffffffffffffff1614156108d6576040517f08c379a00000000000000000000000000000000000000000000000000000000081526004016108cd906126c7565b60405180910390fd5b600360008373ffffffffffffffffffffffffffffffffffffffff1673ffffffffffffffffffffffffffffffffffffffff168152602001908152602001600020549050919050565b610925611031565b73ffffffffffffffffffffffffffffffffffffffff166109436109cf565b73ffffffffffffffffffffffffffffffffffffffff1614610999576040517f08c379a000000000000000000000000000000000000000000000000000000000815260040161099090612787565b60405180910390fd5b6109a36000611437565b565b6000600960009054906101000a900473ffffffffffffffffffffffffffffffffffffffff16905090565b6000600760009054906101000a900473ffffffffffffffffffffffffffffffffffffffff16905090565b60003373ffffffffffffffffffffffffffffffffffffffff16600960009054906101000a900473ffffffffffffffffffffffffffffffffffffffff1673ffffffffffffffffffffffffffffffffffffffff161415610a5a5760019050610a5f565b600090505b90565b600960009054906101000a900473ffffffffffffffffffffffffffffffffffffffff1681565b606060018054610a9790612a5d565b80601f0160208091040260200160405190810160405280929190818152602001828054610ac390612a5d565b8015610b105780601f10610ae557610100808354040283529160200191610b10565b820191906000526020600020905b815481529060010190602001808311610af357829003601f168201915b5050505050905090565b6000610b49600960009054906101000a900473ffffffffffffffffffffffffffffffffffffffff1633846111d0565b819050919050565b610b63610b5c611031565b83836114fd565b5050565b610b78610b72611031565b836110f2565b610bb7576040517f08c379a0000000000000000000000000000000000000000000000000000000008152600401610bae906127e7565b60405180910390fd5b610bc38484848461166a565b50505050565b6060610bd482610fc5565b610c13576040517f08c379a0000000000000000000000000000000000000000000000000000000008152600401610c0a90612747565b60405180910390fd5b6000600660008481526020019081526020016000208054610c3390612a5d565b80601f0160208091040260200160405190810160405280929190818152602001828054610c5f90612a5d565b8015610cac5780601f10610c8157610100808354040283529160200191610cac565b820191906000526020600020905b815481529060010190602001808311610c8f57829003601f168201915b505050505090506000610cbd6116c6565b9050600081511415610cd3578192505050610d16565b600082511115610d08578082604051602001610cf09291906124ff565b60405160208183030381529060405292505050610d16565b610d11846116dd565b925050505b919050565b6000600560008473ffffffffffffffffffffffffffffffffffffffff1673ffffffffffffffffffffffffffffffffffffffff16815260200190815260200160002060008373ffffffffffffffffffffffffffffffffffffffff1673ffffffffffffffffffffffffffffffffffffffff16815260200190815260200160002060009054906101000a900460ff16905092915050565b6000610db9611031565b73ffffffffffffffffffffffffffffffffffffffff16610dd76109cf565b73ffffffffffffffffffffffffffffffffffffffff1614610e2d576040517f08c379a0000000000000000000000000000000000000000000000000000000008152600401610e2490612787565b60405180910390fd5b610e376008611784565b6000610e43600861179a565b9050610e4f84826117a8565b610e598184611982565b8091505092915050565b610e6b611031565b73ffffffffffffffffffffffffffffffffffffffff16610e896109cf565b73ffffffffffffffffffffffffffffffffffffffff1614610edf576040517f08c379a0000000000000000000000000000000000000000000000000000000008152600401610ed690612787565b60405180910390fd5b600073ffffffffffffffffffffffffffffffffffffffff168173ffffffffffffffffffffffffffffffffffffffff161415610f4f576040517f08c379a0000000000000000000000000000000000000000000000000000000008152600401610f46906125e7565b60405180910390fd5b610f5881611437565b50565b60007f01ffc9a7000000000000000000000000000000000000000000000000000000007bffffffffffffffffffffffffffffffffffffffffffffffffffffffff1916827bffffffffffffffffffffffffffffffffffffffffffffffffffffffff1916149050919050565b60008073ffffffffffffffffffffffffffffffffffffffff166002600084815260200190815260200160002060009054906101000a900473ffffffffffffffffffffffffffffffffffffffff1673ffffffffffffffffffffffffffffffffffffffff1614159050919050565b600033905090565b816004600083815260200190815260200160002060006101000a81548173ffffffffffffffffffffffffffffffffffffffff021916908373ffffffffffffffffffffffffffffffffffffffff160217905550808273ffffffffffffffffffffffffffffffffffffffff166110ac836107b3565b73ffffffffffffffffffffffffffffffffffffffff167f8c5be1e5ebec7d5bd14f71427d1e84f3dd0314c0f7b2291e5b200ac8c7c3b92560405160405180910390a45050565b60006110fd82610fc5565b61113c576040517f08c379a000000000000000000000000000000000000000000000000000000000815260040161113390612687565b60405180910390fd5b6000611147836107b3565b90508073ffffffffffffffffffffffffffffffffffffffff168473ffffffffffffffffffffffffffffffffffffffff1614806111b657508373ffffffffffffffffffffffffffffffffffffffff1661119e84610596565b73ffffffffffffffffffffffffffffffffffffffff16145b806111c757506111c68185610d1b565b5b91505092915050565b8273ffffffffffffffffffffffffffffffffffffffff166111f0826107b3565b73ffffffffffffffffffffffffffffffffffffffff1614611246576040517f08c379a000000000000000000000000000000000000000000000000000000000815260040161123d90612607565b60405180910390fd5b600073ffffffffffffffffffffffffffffffffffffffff168273ffffffffffffffffffffffffffffffffffffffff1614156112b6576040517f08c379a00000000000000000000000000000000000000000000000000000000081526004016112ad90612647565b60405180910390fd5b6112c18383836119f6565b6112cc600082611039565b6001600360008573ffffffffffffffffffffffffffffffffffffffff1673ffffffffffffffffffffffffffffffffffffffff168152602001908152602001600020600082825461131c9190612973565b925050819055506001600360008473ffffffffffffffffffffffffffffffffffffffff1673ffffffffffffffffffffffffffffffffffffffff168152602001908152602001600020600082825461137391906128ec565b92505081905550816002600083815260200190815260200160002060006101000a81548173ffffffffffffffffffffffffffffffffffffffff021916908373ffffffffffffffffffffffffffffffffffffffff160217905550808273ffffffffffffffffffffffffffffffffffffffff168473ffffffffffffffffffffffffffffffffffffffff167fddf252ad1be2c89b69c2b068fc378daa952ba7f163c4a11628f55a4df523b3ef60405160405180910390a46114328383836119fb565b505050565b6000600760009054906101000a900473ffffffffffffffffffffffffffffffffffffffff16905081600760006101000a81548173ffffffffffffffffffffffffffffffffffffffff021916908373ffffffffffffffffffffffffffffffffffffffff1602179055508173ffffffffffffffffffffffffffffffffffffffff168173ffffffffffffffffffffffffffffffffffffffff167f8be0079c531659141344cd1fd0a4f28419497f9722a3daafe3b4186f6b6457e060405160405180910390a35050565b8173ffffffffffffffffffffffffffffffffffffffff168373ffffffffffffffffffffffffffffffffffffffff16141561156c576040517f08c379a000000000000000000000000000000000000000000000000000000000815260040161156390612667565b60405180910390fd5b80600560008573ffffffffffffffffffffffffffffffffffffffff1673ffffffffffffffffffffffffffffffffffffffff16815260200190815260200160002060008473ffffffffffffffffffffffffffffffffffffffff1673ffffffffffffffffffffffffffffffffffffffff16815260200190815260200160002060006101000a81548160ff0219169083151502179055508173ffffffffffffffffffffffffffffffffffffffff168373ffffffffffffffffffffffffffffffffffffffff167f17307eab39ab6107e8899845ad3d59bd9653f200f220920489ca2b5937696c318360405161165d919061258a565b60405180910390a3505050565b6116758484846111d0565b61168184848484611a00565b6116c0576040517f08c379a00000000000000000000000000000000000000000000000000000000081526004016116b7906125c7565b60405180910390fd5b50505050565b606060405180602001604052806000815250905090565b60606116e882610fc5565b611727576040517f08c379a000000000000000000000000000000000000000000000000000000000815260040161171e906127a7565b60405180910390fd5b60006117316116c6565b90506000815111611751576040518060200160405280600081525061177c565b8061175b84611b97565b60405160200161176c9291906124ff565b6040516020818303038152906040525b915050919050565b6001816000016000828254019250508190555050565b600081600001549050919050565b600073ffffffffffffffffffffffffffffffffffffffff168273ffffffffffffffffffffffffffffffffffffffff161415611818576040517f08c379a000000000000000000000000000000000000000000000000000000000815260040161180f90612727565b60405180910390fd5b61182181610fc5565b15611861576040517f08c379a000000000000000000000000000000000000000000000000000000000815260040161185890612627565b60405180910390fd5b61186d600083836119f6565b6001600360008473ffffffffffffffffffffffffffffffffffffffff1673ffffffffffffffffffffffffffffffffffffffff16815260200190815260200160002060008282546118bd91906128ec565b92505081905550816002600083815260200190815260200160002060006101000a81548173ffffffffffffffffffffffffffffffffffffffff021916908373ffffffffffffffffffffffffffffffffffffffff160217905550808273ffffffffffffffffffffffffffffffffffffffff16600073ffffffffffffffffffffffffffffffffffffffff167fddf252ad1be2c89b69c2b068fc378daa952ba7f163c4a11628f55a4df523b3ef60405160405180910390a461197e600083836119fb565b5050565b61198b82610fc5565b6119ca576040517f08c379a00000000000000000000000000000000000000000000000000000000081526004016119c190612707565b60405180910390fd5b806006600084815260200190815260200160002090805190602001906119f1929190611d67565b505050565b505050565b505050565b6000611a218473ffffffffffffffffffffffffffffffffffffffff16611d44565b15611b8a578373ffffffffffffffffffffffffffffffffffffffff1663150b7a02611a4a611031565b8786866040518563ffffffff1660e01b8152600401611a6c949392919061253e565b602060405180830381600087803b158015611a8657600080fd5b505af1925050508015611ab757506040513d601f19601f82011682018060405250810190611ab49190612167565b60015b611b3a573d8060008114611ae7576040519150601f19603f3d011682016040523d82523d6000602084013e611aec565b606091505b50600081511415611b32576040517f08c379a0000000000000000000000000000000000000000000000000000000008152600401611b29906125c7565b60405180910390fd5b805181602001fd5b63150b7a0260e01b7bffffffffffffffffffffffffffffffffffffffffffffffffffffffff1916817bffffffffffffffffffffffffffffffffffffffffffffffffffffffff191614915050611b8f565b600190505b949350505050565b60606000821415611bdf576040518060400160405280600181526020017f30000000000000000000000000000000000000000000000000000000000000008152509050611d3f565b600082905060005b60008214611c11578080611bfa90612ac0565b915050600a82611c0a9190612942565b9150611be7565b60008167ffffffffffffffff811115611c53577f4e487b7100000000000000000000000000000000000000000000000000000000600052604160045260246000fd5b6040519080825280601f01601f191660200182016040528015611c855781602001600182028036833780820191505090505b5090505b60008514611d3857600182611c9e9190612973565b9150600a85611cad9190612b09565b6030611cb991906128ec565b60f81b818381518110611cf5577f4e487b7100000000000000000000000000000000000000000000000000000000600052603260045260246000fd5b60200101907effffffffffffffffffffffffffffffffffffffffffffffffffffffffffffff1916908160001a905350600a85611d319190612942565b9450611c89565b8093505050505b919050565b6000808273ffffffffffffffffffffffffffffffffffffffff163b119050919050565b828054611d7390612a5d565b90600052602060002090601f016020900481019282611d955760008555611ddc565b82601f10611dae57805160ff1916838001178555611ddc565b82800160010185558215611ddc579182015b82811115611ddb578251825591602001919060010190611dc0565b5b509050611de99190611ded565b5090565b5b80821115611e06576000816000905550600101611dee565b5090565b6000611e1d611e1884612847565b612822565b905082815260208101848484011115611e3557600080fd5b611e40848285612a1b565b509392505050565b6000611e5b611e5684612878565b612822565b905082815260208101848484011115611e7357600080fd5b611e7e848285612a1b565b509392505050565b600081359050611e95816130fd565b92915050565b600081359050611eaa81613114565b92915050565b600081359050611ebf8161312b565b92915050565b600081519050611ed48161312b565b92915050565b600082601f830112611eeb57600080fd5b8135611efb848260208601611e0a565b91505092915050565b600082601f830112611f1557600080fd5b8135611f25848260208601611e48565b91505092915050565b600081359050611f3d81613142565b92915050565b600060208284031215611f5557600080fd5b6000611f6384828501611e86565b91505092915050565b60008060408385031215611f7f57600080fd5b6000611f8d85828601611e86565b9250506020611f9e85828601611e86565b9150509250929050565b600080600060608486031215611fbd57600080fd5b6000611fcb86828701611e86565b9350506020611fdc86828701611e86565b9250506040611fed86828701611f2e565b9150509250925092565b6000806000806080858703121561200d57600080fd5b600061201b87828801611e86565b945050602061202c87828801611e86565b935050604061203d87828801611f2e565b925050606085013567ffffffffffffffff81111561205a57600080fd5b61206687828801611eda565b91505092959194509250565b6000806040838503121561208557600080fd5b600061209385828601611e86565b92505060206120a485828601611e9b565b9150509250929050565b600080604083850312156120c157600080fd5b60006120cf85828601611e86565b925050602083013567ffffffffffffffff8111156120ec57600080fd5b6120f885828601611f04565b9150509250929050565b6000806040838503121561211557600080fd5b600061212385828601611e86565b925050602061213485828601611f2e565b9150509250929050565b60006020828403121561215057600080fd5b600061215e84828501611eb0565b91505092915050565b60006020828403121561217957600080fd5b600061218784828501611ec5565b91505092915050565b6000602082840312156121a257600080fd5b60006121b084828501611f2e565b91505092915050565b6121c2816129a7565b82525050565b6121d1816129b9565b82525050565b60006121e2826128a9565b6121ec81856128bf565b93506121fc818560208601612a2a565b61220581612bf6565b840191505092915050565b600061221b826128b4565b61222581856128d0565b9350612235818560208601612a2a565b61223e81612bf6565b840191505092915050565b6000612254826128b4565b61225e81856128e1565b935061226e818560208601612a2a565b80840191505092915050565b60006122876032836128d0565b915061229282612c07565b604082019050919050565b60006122aa6026836128d0565b91506122b582612c56565b604082019050919050565b60006122cd6025836128d0565b91506122d882612ca5565b604082019050919050565b60006122f0601c836128d0565b91506122fb82612cf4565b602082019050919050565b60006123136024836128d0565b915061231e82612d1d565b604082019050919050565b60006123366019836128d0565b915061234182612d6c565b602082019050919050565b6000612359602c836128d0565b915061236482612d95565b604082019050919050565b600061237c6038836128d0565b915061238782612de4565b604082019050919050565b600061239f602a836128d0565b91506123aa82612e33565b604082019050919050565b60006123c26029836128d0565b91506123cd82612e82565b604082019050919050565b60006123e5602e836128d0565b91506123f082612ed1565b604082019050919050565b60006124086020836128d0565b915061241382612f20565b602082019050919050565b600061242b6031836128d0565b915061243682612f49565b604082019050919050565b600061244e602c836128d0565b915061245982612f98565b604082019050919050565b60006124716020836128d0565b915061247c82612fe7565b602082019050919050565b6000612494602f836128d0565b915061249f82613010565b604082019050919050565b60006124b76021836128d0565b91506124c28261305f565b604082019050919050565b60006124da6031836128d0565b91506124e5826130ae565b604082019050919050565b6124f981612a11565b82525050565b600061250b8285612249565b91506125178284612249565b91508190509392505050565b600060208201905061253860008301846121b9565b92915050565b600060808201905061255360008301876121b9565b61256060208301866121b9565b61256d60408301856124f0565b818103606083015261257f81846121d7565b905095945050505050565b600060208201905061259f60008301846121c8565b92915050565b600060208201905081810360008301526125bf8184612210565b905092915050565b600060208201905081810360008301526125e08161227a565b9050919050565b600060208201905081810360008301526126008161229d565b9050919050565b60006020820190508181036000830152612620816122c0565b9050919050565b60006020820190508181036000830152612640816122e3565b9050919050565b6000602082019050818103600083015261266081612306565b9050919050565b6000602082019050818103600083015261268081612329565b9050919050565b600060208201905081810360008301526126a08161234c565b9050919050565b600060208201905081810360008301526126c08161236f565b9050919050565b600060208201905081810360008301526126e081612392565b9050919050565b60006020820190508181036000830152612700816123b5565b9050919050565b60006020820190508181036000830152612720816123d8565b9050919050565b60006020820190508181036000830152612740816123fb565b9050919050565b600060208201905081810360008301526127608161241e565b9050919050565b6000602082019050818103600083015261278081612441565b9050919050565b600060208201905081810360008301526127a081612464565b9050919050565b600060208201905081810360008301526127c081612487565b9050919050565b600060208201905081810360008301526127e0816124aa565b9050919050565b60006020820190508181036000830152612800816124cd565b9050919050565b600060208201905061281c60008301846124f0565b92915050565b600061282c61283d565b90506128388282612a8f565b919050565b6000604051905090565b600067ffffffffffffffff82111561286257612861612bc7565b5b61286b82612bf6565b9050602081019050919050565b600067ffffffffffffffff82111561289357612892612bc7565b5b61289c82612bf6565b9050602081019050919050565b600081519050919050565b600081519050919050565b600082825260208201905092915050565b600082825260208201905092915050565b600081905092915050565b60006128f782612a11565b915061290283612a11565b9250827fffffffffffffffffffffffffffffffffffffffffffffffffffffffffffffffff0382111561293757612936612b3a565b5b828201905092915050565b600061294d82612a11565b915061295883612a11565b92508261296857612967612b69565b5b828204905092915050565b600061297e82612a11565b915061298983612a11565b92508282101561299c5761299b612b3a565b5b828203905092915050565b60006129b2826129f1565b9050919050565b60008115159050919050565b60007fffffffff0000000000000000000000000000000000000000000000000000000082169050919050565b600073ffffffffffffffffffffffffffffffffffffffff82169050919050565b6000819050919050565b82818337600083830152505050565b60005b83811015612a48578082015181840152602081019050612a2d565b83811115612a57576000848401525b50505050565b60006002820490506001821680612a7557607f821691505b60208210811415612a8957612a88612b98565b5b50919050565b612a9882612bf6565b810181811067ffffffffffffffff82111715612ab757612ab6612bc7565b5b80604052505050565b6000612acb82612a11565b91507fffffffffffffffffffffffffffffffffffffffffffffffffffffffffffffffff821415612afe57612afd612b3a565b5b600182019050919050565b6000612b1482612a11565b9150612b1f83612a11565b925082612b2f57612b2e612b69565b5b828206905092915050565b7f4e487b7100000000000000000000000000000000000000000000000000000000600052601160045260246000fd5b7f4e487b7100000000000000000000000000000000000000000000000000000000600052601260045260246000fd5b7f4e487b7100000000000000000000000000000000000000000000000000000000600052602260045260246000fd5b7f4e487b7100000000000000000000000000000000000000000000000000000000600052604160045260246000fd5b6000601f19601f8301169050919050565b7f4552433732313a207472616e7366657220746f206e6f6e20455243373231526560008201527f63656976657220696d706c656d656e7465720000000000000000000000000000602082015250565b7f4f776e61626c653a206e6577206f776e657220697320746865207a65726f206160008201527f6464726573730000000000000000000000000000000000000000000000000000602082015250565b7f4552433732313a207472616e736665722066726f6d20696e636f72726563742060008201527f6f776e6572000000000000000000000000000000000000000000000000000000602082015250565b7f4552433732313a20746f6b656e20616c7265616479206d696e74656400000000600082015250565b7f4552433732313a207472616e7366657220746f20746865207a65726f2061646460008201527f7265737300000000000000000000000000000000000000000000000000000000602082015250565b7f4552433732313a20617070726f766520746f2063616c6c657200000000000000600082015250565b7f4552433732313a206f70657261746f7220717565727920666f72206e6f6e657860008201527f697374656e7420746f6b656e0000000000000000000000000000000000000000602082015250565b7f4552433732313a20617070726f76652063616c6c6572206973206e6f74206f7760008201527f6e6572206e6f7220617070726f76656420666f7220616c6c0000000000000000602082015250565b7f4552433732313a2062616c616e636520717565727920666f7220746865207a6560008201527f726f206164647265737300000000000000000000000000000000000000000000602082015250565b7f4552433732313a206f776e657220717565727920666f72206e6f6e657869737460008201527f656e7420746f6b656e0000000000000000000000000000000000000000000000602082015250565b7f45524337323155524953746f726167653a2055524920736574206f66206e6f6e60008201527f6578697374656e7420746f6b656e000000000000000000000000000000000000602082015250565b7f4552433732313a206d696e7420746f20746865207a65726f2061646472657373600082015250565b7f45524337323155524953746f726167653a2055524920717565727920666f722060008201527f6e6f6e6578697374656e7420746f6b656e000000000000000000000000000000602082015250565b7f4552433732313a20617070726f76656420717565727920666f72206e6f6e657860008201527f697374656e7420746f6b656e0000000000000000000000000000000000000000602082015250565b7f4f776e61626c653a2063616c6c6572206973206e6f7420746865206f776e6572600082015250565b7f4552433732314d657461646174613a2055524920717565727920666f72206e6f60008201527f6e6578697374656e7420746f6b656e0000000000000000000000000000000000602082015250565b7f4552433732313a20617070726f76616c20746f2063757272656e74206f776e6560008201527f7200000000000000000000000000000000000000000000000000000000000000602082015250565b7f4552433732313a207472616e736665722063616c6c6572206973206e6f74206f60008201527f776e6572206e6f7220617070726f766564000000000000000000000000000000602082015250565b613106816129a7565b811461311157600080fd5b50565b61311d816129b9565b811461312857600080fd5b50565b613134816129c5565b811461313f57600080fd5b50565b61314b81612a11565b811461315657600080fd5b5056fea2646970667358221220c50a147616389e178af6460787954846f7a92611f279772af5ad9166d154190d64736f6c63430008010033",
  "linkReferences": {},
  "deployedLinkReferences": {}
}