{
  "_format": "hh-sol-artifact-1",
  "contractName": "MyNFT",
  "sourceName": "contracts/MyNFT.sol",
  "abi": [
    {
      "inputs": [],
      "stateMutability": "nonpayable",
      "type": "constructor"
    },
    {
      "anonymous": false,
      "inputs": [
        {
          "indexed": true,
          "internalType": "address",
          "name": "owner",
          "type": "address"
        },
        {
          "indexed": true,
          "internalType": "address",
          "name": "approved",
          "type": "address"
        },
        {
          "indexed": true,
          "internalType": "uint256",
          "name": "tokenId",
          "type": "uint256"
        }
      ],
      "name": "Approval",
      "type": "event"
    },
    {
      "anonymous": false,
      "inputs": [
        {
          "indexed": true,
          "internalType": "address",
          "name": "owner",
          "type": "address"
        },
        {
          "indexed": true,
          "internalType": "address",
          "name": "operator",
          "type": "address"
        },
        {
          "indexed": false,
          "internalType": "bool",
          "name": "approved",
          "type": "bool"
        }
      ],
      "name": "ApprovalForAll",
      "type": "event"
    },
    {
      "anonymous": false,
      "inputs": [
        {
          "indexed": true,
          "internalType": "address",
          "name": "previousOwner",
          "type": "address"
        },
        {
          "indexed": true,
          "internalType": "address",
          "name": "newOwner",
          "type": "address"
        }
      ],
      "name": "OwnershipTransferred",
      "type": "event"
    },
    {
      "anonymous": false,
      "inputs": [
        {
          "indexed": true,
          "internalType": "address",
          "name": "from",
          "type": "address"
        },
        {
          "indexed": true,
          "internalType": "address",
          "name": "to",
          "type": "address"
        },
        {
          "indexed": true,
          "internalType": "uint256",
          "name": "tokenId",
          "type": "uint256"
        }
      ],
      "name": "Transfer",
      "type": "event"
    },
    {
      "inputs": [
        {
          "internalType": "address",
          "name": "to",
          "type": "address"
        },
        {
          "internalType": "uint256",
          "name": "tokenId",
          "type": "uint256"
        }
      ],
      "name": "approve",
      "outputs": [],
      "stateMutability": "nonpayable",
      "type": "function"
    },
    {
      "inputs": [
        {
          "internalType": "address",
          "name": "owner",
          "type": "address"
        }
      ],
      "name": "balanceOf",
      "outputs": [
        {
          "internalType": "uint256",
          "name": "",
          "type": "uint256"
        }
      ],
      "stateMutability": "view",
      "type": "function"
    },
    {
      "inputs": [
        {
          "internalType": "uint256",
          "name": "tokenId",
          "type": "uint256"
        }
      ],
      "name": "getApproved",
      "outputs": [
        {
          "internalType": "address",
          "name": "",
          "type": "address"
        }
      ],
      "stateMutability": "view",
      "type": "function"
    },
    {
      "inputs": [],
      "name": "getOwner",
      "outputs": [
        {
          "internalType": "address",
          "name": "",
          "type": "address"
        }
      ],
      "stateMutability": "view",
      "type": "function"
    },
    {
      "inputs": [
        {
          "internalType": "address",
          "name": "owner",
          "type": "address"
        },
        {
          "internalType": "address",
          "name": "operator",
          "type": "address"
        }
      ],
      "name": "isApprovedForAll",
      "outputs": [
        {
          "internalType": "bool",
          "name": "",
          "type": "bool"
        }
      ],
      "stateMutability": "view",
      "type": "function"
    },
    {
      "inputs": [],
      "name": "isOwner",
      "outputs": [
        {
          "internalType": "bool",
          "name": "",
          "type": "bool"
        }
      ],
      "stateMutability": "view",
      "type": "function"
    },
    {
      "inputs": [
        {
          "internalType": "address",
          "name": "recipient",
          "type": "address"
        },
        {
          "internalType": "string",
          "name": "tokenURI",
          "type": "string"
        }
      ],
      "name": "mintNFT",
      "outputs": [
        {
          "internalType": "uint256",
          "name": "",
          "type": "uint256"
        }
      ],
      "stateMutability": "nonpayable",
      "type": "function"
    },
    {
      "inputs": [],
      "name": "name",
      "outputs": [
        {
          "internalType": "string",
          "name": "",
          "type": "string"
        }
      ],
      "stateMutability": "view",
      "type": "function"
    },
    {
      "inputs": [],
      "name": "owner",
      "outputs": [
        {
          "internalType": "address",
          "name": "",
          "type": "address"
        }
      ],
      "stateMutability": "view",
      "type": "function"
    },
    {
      "inputs": [],
      "name": "ownerAddress",
      "outputs": [
        {
          "internalType": "address",
          "name": "",
          "type": "address"
        }
      ],
      "stateMutability": "view",
      "type": "function"
    },
    {
      "inputs": [
        {
          "internalType": "uint256",
          "name": "tokenId",
          "type": "uint256"
        }
      ],
      "name": "ownerOf",
      "outputs": [
        {
          "internalType": "address",
          "name": "",
          "type": "address"
        }
      ],
      "stateMutability": "view",
      "type": "function"
    },
    {
      "inputs": [],
      "name": "ownerPayAddress",
      "outputs": [
        {
          "internalType": "address payable",
          "name": "",
          "type": "address"
        }
      ],
      "stateMutability": "view",
      "type": "function"
    },
    {
      "inputs": [],
      "name": "renounceOwnership",
      "outputs": [],
      "stateMutability": "nonpayable",
      "type": "function"
    },
    {
      "inputs": [
        {
          "internalType": "address",
          "name": "from",
          "type": "address"
        },
        {
          "internalType": "address",
          "name": "to",
          "type": "address"
        },
        {
          "internalType": "uint256",
          "name": "tokenId",
          "type": "uint256"
        }
      ],
      "name": "safeTransferFrom",
      "outputs": [],
      "stateMutability": "nonpayable",
      "type": "function"
    },
    {
      "inputs": [
        {
          "internalType": "address",
          "name": "from",
          "type": "address"
        },
        {
          "internalType": "address",
          "name": "to",
          "type": "address"
        },
        {
          "internalType": "uint256",
          "name": "tokenId",
          "type": "uint256"
        },
        {
          "internalType": "bytes",
          "name": "_data",
          "type": "bytes"
        }
      ],
      "name": "safeTransferFrom",
      "outputs": [],
      "stateMutability": "nonpayable",
      "type": "function"
    },
    {
      "inputs": [
        {
          "internalType": "address",
          "name": "operator",
          "type": "address"
        },
        {
          "internalType": "bool",
          "name": "approved",
          "type": "bool"
        }
      ],
      "name": "setApprovalForAll",
      "outputs": [],
      "stateMutability": "nonpayable",
      "type": "function"
    },
    {
      "inputs": [
        {
          "internalType": "bytes4",
          "name": "interfaceId",
          "type": "bytes4"
        }
      ],
      "name": "supportsInterface",
      "outputs": [
        {
          "internalType": "bool",
          "name": "",
          "type": "bool"
        }
      ],
      "stateMutability": "view",
      "type": "function"
    },
    {
      "inputs": [],
      "name": "symbol",
      "outputs": [
        {
          "internalType": "string",
          "name": "",
          "type": "string"
        }
      ],
      "stateMutability": "view",
      "type": "function"
    },
    {
      "inputs": [
        {
          "internalType": "uint256",
          "name": "tokenId",
          "type": "uint256"
        }
      ],
      "name": "tokenURI",
      "outputs": [
        {
          "internalType": "string",
          "name": "",
          "type": "string"
        }
      ],
      "stateMutability": "view",
      "type": "function"
    },
    {
      "inputs": [
        {
          "internalType": "address",
          "name": "from",
          "type": "address"
        },
        {
          "internalType": "address",
          "name": "to",
          "type": "address"
        },
        {
          "internalType": "uint256",
          "name": "tokenId",
          "type": "uint256"
        }
      ],
      "name": "transferFrom",
      "outputs": [],
      "stateMutability": "nonpayable",
      "type": "function"
    },
    {
      "inputs": [
        {
          "internalType": "address",
          "name": "newOwner",
          "type": "address"
        }
      ],
      "name": "transferOwnership",
      "outputs": [],
      "stateMutability": "nonpayable",
      "type": "function"
    },
    {
      "inputs": [
        {
          "internalType": "uint256",
          "name": "token_id",
          "type": "uint256"
        }
      ],
      "name": "transferToken",
      "outputs": [
        {
          "internalType": "uint256",
          "name": "",
          "type": "uint256"
        }
      ],
      "stateMutability": "payable",
      "type": "function"
    }
  ],
  "bytecode": "0x60806040523480156200001157600080fd5b506040518060400160405280600581526020017f4d794e46540000000000000000000000000000000000000000000000000000008152506040518060400160405280600381526020017f4e4654000000000000000000000000000000000000000000000000000000000081525081600090805190602001906200009692919062000228565b508060019080519060200190620000af92919062000228565b505050620000d2620000c66200015a60201b60201c565b6200016260201b60201c565b33600960006101000a81548173ffffffffffffffffffffffffffffffffffffffff021916908373ffffffffffffffffffffffffffffffffffffffff16021790555033600a60006101000a81548173ffffffffffffffffffffffffffffffffffffffff021916908373ffffffffffffffffffffffffffffffffffffffff1602179055506200033d565b600033905090565b6000600760009054906101000a900473ffffffffffffffffffffffffffffffffffffffff16905081600760006101000a81548173ffffffffffffffffffffffffffffffffffffffff021916908373ffffffffffffffffffffffffffffffffffffffff1602179055508173ffffffffffffffffffffffffffffffffffffffff168173ffffffffffffffffffffffffffffffffffffffff167f8be0079c531659141344cd1fd0a4f28419497f9722a3daafe3b4186f6b6457e060405160405180910390a35050565b8280546200023690620002d8565b90600052602060002090601f0160209004810192826200025a5760008555620002a6565b82601f106200027557805160ff1916838001178555620002a6565b82800160010185558215620002a6579182015b82811115620002a557825182559160200191906001019062000288565b5b509050620002b59190620002b9565b5090565b5b80821115620002d4576000816000905550600101620002ba565b5090565b60006002820490506001821680620002f157607f821691505b602082108114156200030857620003076200030e565b5b50919050565b7f4e487b7100000000000000000000000000000000000000000000000000000000600052602260045260246000fd5b613387806200034d6000396000f3fe6080604052600436106101355760003560e01c80638f32d59b116100ab578063b88d4fde1161006f578063b88d4fde1461041b578063c87b56dd14610444578063e985e9c514610481578063eacabe14146104be578063f2fde38b146104fb578063f3e9deac1461052457610135565b80638f32d59b146103415780638f84aa091461036c57806395d89b41146103975780639fc71b31146103c2578063a22cb465146103f257610135565b806342842e0e116100fd57806342842e0e146102315780636352211e1461025a57806370a0823114610297578063715018a6146102d4578063893d20e8146102eb5780638da5cb5b1461031657610135565b806301ffc9a71461013a57806306fdde0314610177578063081812fc146101a2578063095ea7b3146101df57806323b872dd14610208575b600080fd5b34801561014657600080fd5b50610161600480360381019061015c91906122fa565b61054f565b60405161016e9190612770565b60405180910390f35b34801561018357600080fd5b5061018c610631565b604051610199919061278b565b60405180910390f35b3480156101ae57600080fd5b506101c960048036038101906101c4919061234c565b6106c3565b6040516101d691906126ee565b60405180910390f35b3480156101eb57600080fd5b50610206600480360381019061020191906122be565b610748565b005b34801561021457600080fd5b5061022f600480360381019061022a9190612164565b610860565b005b34801561023d57600080fd5b5061025860048036038101906102539190612164565b6108c0565b005b34801561026657600080fd5b50610281600480360381019061027c919061234c565b6108e0565b60405161028e91906126ee565b60405180910390f35b3480156102a357600080fd5b506102be60048036038101906102b991906120ff565b610992565b6040516102cb91906129ed565b60405180910390f35b3480156102e057600080fd5b506102e9610a4a565b005b3480156102f757600080fd5b50610300610ad2565b60405161030d91906126ee565b60405180910390f35b34801561032257600080fd5b5061032b610afc565b60405161033891906126ee565b60405180910390f35b34801561034d57600080fd5b50610356610b26565b6040516103639190612770565b60405180910390f35b34801561037857600080fd5b50610381610b8f565b60405161038e91906126ee565b60405180910390f35b3480156103a357600080fd5b506103ac610bb5565b6040516103b9919061278b565b60405180910390f35b6103dc60048036038101906103d7919061234c565b610c47565b6040516103e991906129ed565b60405180910390f35b3480156103fe57600080fd5b506104196004803603810190610414919061222e565b610ce7565b005b34801561042757600080fd5b50610442600480360381019061043d91906121b3565b610cfd565b005b34801561045057600080fd5b5061046b6004803603810190610466919061234c565b610d5f565b604051610478919061278b565b60405180910390f35b34801561048d57600080fd5b506104a860048036038101906104a39190612128565b610eb1565b6040516104b59190612770565b60405180910390f35b3480156104ca57600080fd5b506104e560048036038101906104e0919061226a565b610f45565b6040516104f291906129ed565b60405180910390f35b34801561050757600080fd5b50610522600480360381019061051d91906120ff565b610ff9565b005b34801561053057600080fd5b506105396110f1565b6040516105469190612709565b60405180910390f35b60007f80ac58cd000000000000000000000000000000000000000000000000000000007bffffffffffffffffffffffffffffffffffffffffffffffffffffffff1916827bffffffffffffffffffffffffffffffffffffffffffffffffffffffff1916148061061a57507f5b5e139f000000000000000000000000000000000000000000000000000000007bffffffffffffffffffffffffffffffffffffffffffffffffffffffff1916827bffffffffffffffffffffffffffffffffffffffffffffffffffffffff1916145b8061062a575061062982611117565b5b9050919050565b60606000805461064090612c55565b80601f016020809104026020016040519081016040528092919081815260200182805461066c90612c55565b80156106b95780601f1061068e576101008083540402835291602001916106b9565b820191906000526020600020905b81548152906001019060200180831161069c57829003601f168201915b5050505050905090565b60006106ce82611181565b61070d576040517f08c379a00000000000000000000000000000000000000000000000000000000081526004016107049061294d565b60405180910390fd5b6004600083815260200190815260200160002060009054906101000a900473ffffffffffffffffffffffffffffffffffffffff169050919050565b6000610753826108e0565b90508073ffffffffffffffffffffffffffffffffffffffff168373ffffffffffffffffffffffffffffffffffffffff1614156107c4576040517f08c379a00000000000000000000000000000000000000000000000000000000081526004016107bb906129ad565b60405180910390fd5b8073ffffffffffffffffffffffffffffffffffffffff166107e36111ed565b73ffffffffffffffffffffffffffffffffffffffff16148061081257506108118161080c6111ed565b610eb1565b5b610851576040517f08c379a00000000000000000000000000000000000000000000000000000000081526004016108489061288d565b60405180910390fd5b61085b83836111f5565b505050565b61087161086b6111ed565b826112ae565b6108b0576040517f08c379a00000000000000000000000000000000000000000000000000000000081526004016108a7906129cd565b60405180910390fd5b6108bb83838361138c565b505050565b6108db83838360405180602001604052806000815250610cfd565b505050565b6000806002600084815260200190815260200160002060009054906101000a900473ffffffffffffffffffffffffffffffffffffffff169050600073ffffffffffffffffffffffffffffffffffffffff168173ffffffffffffffffffffffffffffffffffffffff161415610989576040517f08c379a0000000000000000000000000000000000000000000000000000000008152600401610980906128cd565b60405180910390fd5b80915050919050565b60008073ffffffffffffffffffffffffffffffffffffffff168273ffffffffffffffffffffffffffffffffffffffff161415610a03576040517f08c379a00000000000000000000000000000000000000000000000000000000081526004016109fa906128ad565b60405180910390fd5b600360008373ffffffffffffffffffffffffffffffffffffffff1673ffffffffffffffffffffffffffffffffffffffff168152602001908152602001600020549050919050565b610a526111ed565b73ffffffffffffffffffffffffffffffffffffffff16610a70610afc565b73ffffffffffffffffffffffffffffffffffffffff1614610ac6576040517f08c379a0000000000000000000000000000000000000000000000000000000008152600401610abd9061296d565b60405180910390fd5b610ad060006115f3565b565b6000600960009054906101000a900473ffffffffffffffffffffffffffffffffffffffff16905090565b6000600760009054906101000a900473ffffffffffffffffffffffffffffffffffffffff16905090565b60003373ffffffffffffffffffffffffffffffffffffffff16600960009054906101000a900473ffffffffffffffffffffffffffffffffffffffff1673ffffffffffffffffffffffffffffffffffffffff161415610b875760019050610b8c565b600090505b90565b600960009054906101000a900473ffffffffffffffffffffffffffffffffffffffff1681565b606060018054610bc490612c55565b80601f0160208091040260200160405190810160405280929190818152602001828054610bf090612c55565b8015610c3d5780601f10610c1257610100808354040283529160200191610c3d565b820191906000526020600020905b815481529060010190602001808311610c2057829003601f168201915b5050505050905090565b6000600a60009054906101000a900473ffffffffffffffffffffffffffffffffffffffff1673ffffffffffffffffffffffffffffffffffffffff166108fc349081150290604051600060405180830381858888f19350505050158015610cb1573d6000803e3d6000fd5b50610cdf600960009054906101000a900473ffffffffffffffffffffffffffffffffffffffff16338461138c565b819050919050565b610cf9610cf26111ed565b83836116b9565b5050565b610d0e610d086111ed565b836112ae565b610d4d576040517f08c379a0000000000000000000000000000000000000000000000000000000008152600401610d44906129cd565b60405180910390fd5b610d5984848484611826565b50505050565b6060610d6a82611181565b610da9576040517f08c379a0000000000000000000000000000000000000000000000000000000008152600401610da09061292d565b60405180910390fd5b6000600660008481526020019081526020016000208054610dc990612c55565b80601f0160208091040260200160405190810160405280929190818152602001828054610df590612c55565b8015610e425780601f10610e1757610100808354040283529160200191610e42565b820191906000526020600020905b815481529060010190602001808311610e2557829003601f168201915b505050505090506000610e53611882565b9050600081511415610e69578192505050610eac565b600082511115610e9e578082604051602001610e869291906126ca565b60405160208183030381529060405292505050610eac565b610ea784611899565b925050505b919050565b6000600560008473ffffffffffffffffffffffffffffffffffffffff1673ffffffffffffffffffffffffffffffffffffffff16815260200190815260200160002060008373ffffffffffffffffffffffffffffffffffffffff1673ffffffffffffffffffffffffffffffffffffffff16815260200190815260200160002060009054906101000a900460ff16905092915050565b6000610f4f6111ed565b73ffffffffffffffffffffffffffffffffffffffff16610f6d610afc565b73ffffffffffffffffffffffffffffffffffffffff1614610fc3576040517f08c379a0000000000000000000000000000000000000000000000000000000008152600401610fba9061296d565b60405180910390fd5b610fcd6008611940565b6000610fd96008611956565b9050610fe58482611964565b610fef8184611b3e565b8091505092915050565b6110016111ed565b73ffffffffffffffffffffffffffffffffffffffff1661101f610afc565b73ffffffffffffffffffffffffffffffffffffffff1614611075576040517f08c379a000000000000000000000000000000000000000000000000000000000815260040161106c9061296d565b60405180910390fd5b600073ffffffffffffffffffffffffffffffffffffffff168173ffffffffffffffffffffffffffffffffffffffff1614156110e5576040517f08c379a00000000000000000000000000000000000000000000000000000000081526004016110dc906127cd565b60405180910390fd5b6110ee816115f3565b50565b600a60009054906101000a900473ffffffffffffffffffffffffffffffffffffffff1681565b60007f01ffc9a7000000000000000000000000000000000000000000000000000000007bffffffffffffffffffffffffffffffffffffffffffffffffffffffff1916827bffffffffffffffffffffffffffffffffffffffffffffffffffffffff1916149050919050565b60008073ffffffffffffffffffffffffffffffffffffffff166002600084815260200190815260200160002060009054906101000a900473ffffffffffffffffffffffffffffffffffffffff1673ffffffffffffffffffffffffffffffffffffffff1614159050919050565b600033905090565b816004600083815260200190815260200160002060006101000a81548173ffffffffffffffffffffffffffffffffffffffff021916908373ffffffffffffffffffffffffffffffffffffffff160217905550808273ffffffffffffffffffffffffffffffffffffffff16611268836108e0565b73ffffffffffffffffffffffffffffffffffffffff167f8c5be1e5ebec7d5bd14f71427d1e84f3dd0314c0f7b2291e5b200ac8c7c3b92560405160405180910390a45050565b60006112b982611181565b6112f8576040517f08c379a00000000000000000000000000000000000000000000000000000000081526004016112ef9061286d565b60405180910390fd5b6000611303836108e0565b90508073ffffffffffffffffffffffffffffffffffffffff168473ffffffffffffffffffffffffffffffffffffffff16148061137257508373ffffffffffffffffffffffffffffffffffffffff1661135a846106c3565b73ffffffffffffffffffffffffffffffffffffffff16145b8061138357506113828185610eb1565b5b91505092915050565b8273ffffffffffffffffffffffffffffffffffffffff166113ac826108e0565b73ffffffffffffffffffffffffffffffffffffffff1614611402576040517f08c379a00000000000000000000000000000000000000000000000000000000081526004016113f9906127ed565b60405180910390fd5b600073ffffffffffffffffffffffffffffffffffffffff168273ffffffffffffffffffffffffffffffffffffffff161415611472576040517f08c379a00000000000000000000000000000000000000000000000000000000081526004016114699061282d565b60405180910390fd5b61147d838383611bb2565b6114886000826111f5565b6001600360008573ffffffffffffffffffffffffffffffffffffffff1673ffffffffffffffffffffffffffffffffffffffff16815260200190815260200160002060008282546114d89190612b59565b925050819055506001600360008473ffffffffffffffffffffffffffffffffffffffff1673ffffffffffffffffffffffffffffffffffffffff168152602001908152602001600020600082825461152f9190612ad2565b92505081905550816002600083815260200190815260200160002060006101000a81548173ffffffffffffffffffffffffffffffffffffffff021916908373ffffffffffffffffffffffffffffffffffffffff160217905550808273ffffffffffffffffffffffffffffffffffffffff168473ffffffffffffffffffffffffffffffffffffffff167fddf252ad1be2c89b69c2b068fc378daa952ba7f163c4a11628f55a4df523b3ef60405160405180910390a46115ee838383611bb7565b505050565b6000600760009054906101000a900473ffffffffffffffffffffffffffffffffffffffff16905081600760006101000a81548173ffffffffffffffffffffffffffffffffffffffff021916908373ffffffffffffffffffffffffffffffffffffffff1602179055508173ffffffffffffffffffffffffffffffffffffffff168173ffffffffffffffffffffffffffffffffffffffff167f8be0079c531659141344cd1fd0a4f28419497f9722a3daafe3b4186f6b6457e060405160405180910390a35050565b8173ffffffffffffffffffffffffffffffffffffffff168373ffffffffffffffffffffffffffffffffffffffff161415611728576040517f08c379a000000000000000000000000000000000000000000000000000000000815260040161171f9061284d565b60405180910390fd5b80600560008573ffffffffffffffffffffffffffffffffffffffff1673ffffffffffffffffffffffffffffffffffffffff16815260200190815260200160002060008473ffffffffffffffffffffffffffffffffffffffff1673ffffffffffffffffffffffffffffffffffffffff16815260200190815260200160002060006101000a81548160ff0219169083151502179055508173ffffffffffffffffffffffffffffffffffffffff168373ffffffffffffffffffffffffffffffffffffffff167f17307eab39ab6107e8899845ad3d59bd9653f200f220920489ca2b5937696c31836040516118199190612770565b60405180910390a3505050565b61183184848461138c565b61183d84848484611bbc565b61187c576040517f08c379a0000000000000000000000000000000000000000000000000000000008152600401611873906127ad565b60405180910390fd5b50505050565b606060405180602001604052806000815250905090565b60606118a482611181565b6118e3576040517f08c379a00000000000000000000000000000000000000000000000000000000081526004016118da9061298d565b60405180910390fd5b60006118ed611882565b9050600081511161190d5760405180602001604052806000815250611938565b8061191784611d53565b6040516020016119289291906126ca565b6040516020818303038152906040525b915050919050565b6001816000016000828254019250508190555050565b600081600001549050919050565b600073ffffffffffffffffffffffffffffffffffffffff168273ffffffffffffffffffffffffffffffffffffffff1614156119d4576040517f08c379a00000000000000000000000000000000000000000000000000000000081526004016119cb9061290d565b60405180910390fd5b6119dd81611181565b15611a1d576040517f08c379a0000000000000000000000000000000000000000000000000000000008152600401611a149061280d565b60405180910390fd5b611a2960008383611bb2565b6001600360008473ffffffffffffffffffffffffffffffffffffffff1673ffffffffffffffffffffffffffffffffffffffff1681526020019081526020016000206000828254611a799190612ad2565b92505081905550816002600083815260200190815260200160002060006101000a81548173ffffffffffffffffffffffffffffffffffffffff021916908373ffffffffffffffffffffffffffffffffffffffff160217905550808273ffffffffffffffffffffffffffffffffffffffff16600073ffffffffffffffffffffffffffffffffffffffff167fddf252ad1be2c89b69c2b068fc378daa952ba7f163c4a11628f55a4df523b3ef60405160405180910390a4611b3a60008383611bb7565b5050565b611b4782611181565b611b86576040517f08c379a0000000000000000000000000000000000000000000000000000000008152600401611b7d906128ed565b60405180910390fd5b80600660008481526020019081526020016000209080519060200190611bad929190611f23565b505050565b505050565b505050565b6000611bdd8473ffffffffffffffffffffffffffffffffffffffff16611f00565b15611d46578373ffffffffffffffffffffffffffffffffffffffff1663150b7a02611c066111ed565b8786866040518563ffffffff1660e01b8152600401611c289493929190612724565b602060405180830381600087803b158015611c4257600080fd5b505af1925050508015611c7357506040513d601f19601f82011682018060405250810190611c709190612323565b60015b611cf6573d8060008114611ca3576040519150601f19603f3d011682016040523d82523d6000602084013e611ca8565b606091505b50600081511415611cee576040517f08c379a0000000000000000000000000000000000000000000000000000000008152600401611ce5906127ad565b60405180910390fd5b805181602001fd5b63150b7a0260e01b7bffffffffffffffffffffffffffffffffffffffffffffffffffffffff1916817bffffffffffffffffffffffffffffffffffffffffffffffffffffffff191614915050611d4b565b600190505b949350505050565b60606000821415611d9b576040518060400160405280600181526020017f30000000000000000000000000000000000000000000000000000000000000008152509050611efb565b600082905060005b60008214611dcd578080611db690612cb8565b915050600a82611dc69190612b28565b9150611da3565b60008167ffffffffffffffff811115611e0f577f4e487b7100000000000000000000000000000000000000000000000000000000600052604160045260246000fd5b6040519080825280601f01601f191660200182016040528015611e415781602001600182028036833780820191505090505b5090505b60008514611ef457600182611e5a9190612b59565b9150600a85611e699190612d01565b6030611e759190612ad2565b60f81b818381518110611eb1577f4e487b7100000000000000000000000000000000000000000000000000000000600052603260045260246000fd5b60200101907effffffffffffffffffffffffffffffffffffffffffffffffffffffffffffff1916908160001a905350600a85611eed9190612b28565b9450611e45565b8093505050505b919050565b6000808273ffffffffffffffffffffffffffffffffffffffff163b119050919050565b828054611f2f90612c55565b90600052602060002090601f016020900481019282611f515760008555611f98565b82601f10611f6a57805160ff1916838001178555611f98565b82800160010185558215611f98579182015b82811115611f97578251825591602001919060010190611f7c565b5b509050611fa59190611fa9565b5090565b5b80821115611fc2576000816000905550600101611faa565b5090565b6000611fd9611fd484612a2d565b612a08565b905082815260208101848484011115611ff157600080fd5b611ffc848285612c13565b509392505050565b600061201761201284612a5e565b612a08565b90508281526020810184848401111561202f57600080fd5b61203a848285612c13565b509392505050565b600081359050612051816132f5565b92915050565b6000813590506120668161330c565b92915050565b60008135905061207b81613323565b92915050565b60008151905061209081613323565b92915050565b600082601f8301126120a757600080fd5b81356120b7848260208601611fc6565b91505092915050565b600082601f8301126120d157600080fd5b81356120e1848260208601612004565b91505092915050565b6000813590506120f98161333a565b92915050565b60006020828403121561211157600080fd5b600061211f84828501612042565b91505092915050565b6000806040838503121561213b57600080fd5b600061214985828601612042565b925050602061215a85828601612042565b9150509250929050565b60008060006060848603121561217957600080fd5b600061218786828701612042565b935050602061219886828701612042565b92505060406121a9868287016120ea565b9150509250925092565b600080600080608085870312156121c957600080fd5b60006121d787828801612042565b94505060206121e887828801612042565b93505060406121f9878288016120ea565b925050606085013567ffffffffffffffff81111561221657600080fd5b61222287828801612096565b91505092959194509250565b6000806040838503121561224157600080fd5b600061224f85828601612042565b925050602061226085828601612057565b9150509250929050565b6000806040838503121561227d57600080fd5b600061228b85828601612042565b925050602083013567ffffffffffffffff8111156122a857600080fd5b6122b4858286016120c0565b9150509250929050565b600080604083850312156122d157600080fd5b60006122df85828601612042565b92505060206122f0858286016120ea565b9150509250929050565b60006020828403121561230c57600080fd5b600061231a8482850161206c565b91505092915050565b60006020828403121561233557600080fd5b600061234384828501612081565b91505092915050565b60006020828403121561235e57600080fd5b600061236c848285016120ea565b91505092915050565b61237e81612b9f565b82525050565b61238d81612b8d565b82525050565b61239c81612bb1565b82525050565b60006123ad82612a8f565b6123b78185612aa5565b93506123c7818560208601612c22565b6123d081612dee565b840191505092915050565b60006123e682612a9a565b6123f08185612ab6565b9350612400818560208601612c22565b61240981612dee565b840191505092915050565b600061241f82612a9a565b6124298185612ac7565b9350612439818560208601612c22565b80840191505092915050565b6000612452603283612ab6565b915061245d82612dff565b604082019050919050565b6000612475602683612ab6565b915061248082612e4e565b604082019050919050565b6000612498602583612ab6565b91506124a382612e9d565b604082019050919050565b60006124bb601c83612ab6565b91506124c682612eec565b602082019050919050565b60006124de602483612ab6565b91506124e982612f15565b604082019050919050565b6000612501601983612ab6565b915061250c82612f64565b602082019050919050565b6000612524602c83612ab6565b915061252f82612f8d565b604082019050919050565b6000612547603883612ab6565b915061255282612fdc565b604082019050919050565b600061256a602a83612ab6565b91506125758261302b565b604082019050919050565b600061258d602983612ab6565b91506125988261307a565b604082019050919050565b60006125b0602e83612ab6565b91506125bb826130c9565b604082019050919050565b60006125d3602083612ab6565b91506125de82613118565b602082019050919050565b60006125f6603183612ab6565b915061260182613141565b604082019050919050565b6000612619602c83612ab6565b915061262482613190565b604082019050919050565b600061263c602083612ab6565b9150612647826131df565b602082019050919050565b600061265f602f83612ab6565b915061266a82613208565b604082019050919050565b6000612682602183612ab6565b915061268d82613257565b604082019050919050565b60006126a5603183612ab6565b91506126b0826132a6565b604082019050919050565b6126c481612c09565b82525050565b60006126d68285612414565b91506126e28284612414565b91508190509392505050565b60006020820190506127036000830184612384565b92915050565b600060208201905061271e6000830184612375565b92915050565b60006080820190506127396000830187612384565b6127466020830186612384565b61275360408301856126bb565b818103606083015261276581846123a2565b905095945050505050565b60006020820190506127856000830184612393565b92915050565b600060208201905081810360008301526127a581846123db565b905092915050565b600060208201905081810360008301526127c681612445565b9050919050565b600060208201905081810360008301526127e681612468565b9050919050565b600060208201905081810360008301526128068161248b565b9050919050565b60006020820190508181036000830152612826816124ae565b9050919050565b60006020820190508181036000830152612846816124d1565b9050919050565b60006020820190508181036000830152612866816124f4565b9050919050565b6000602082019050818103600083015261288681612517565b9050919050565b600060208201905081810360008301526128a68161253a565b9050919050565b600060208201905081810360008301526128c68161255d565b9050919050565b600060208201905081810360008301526128e681612580565b9050919050565b60006020820190508181036000830152612906816125a3565b9050919050565b60006020820190508181036000830152612926816125c6565b9050919050565b60006020820190508181036000830152612946816125e9565b9050919050565b600060208201905081810360008301526129668161260c565b9050919050565b600060208201905081810360008301526129868161262f565b9050919050565b600060208201905081810360008301526129a681612652565b9050919050565b600060208201905081810360008301526129c681612675565b9050919050565b600060208201905081810360008301526129e681612698565b9050919050565b6000602082019050612a0260008301846126bb565b92915050565b6000612a12612a23565b9050612a1e8282612c87565b919050565b6000604051905090565b600067ffffffffffffffff821115612a4857612a47612dbf565b5b612a5182612dee565b9050602081019050919050565b600067ffffffffffffffff821115612a7957612a78612dbf565b5b612a8282612dee565b9050602081019050919050565b600081519050919050565b600081519050919050565b600082825260208201905092915050565b600082825260208201905092915050565b600081905092915050565b6000612add82612c09565b9150612ae883612c09565b9250827fffffffffffffffffffffffffffffffffffffffffffffffffffffffffffffffff03821115612b1d57612b1c612d32565b5b828201905092915050565b6000612b3382612c09565b9150612b3e83612c09565b925082612b4e57612b4d612d61565b5b828204905092915050565b6000612b6482612c09565b9150612b6f83612c09565b925082821015612b8257612b81612d32565b5b828203905092915050565b6000612b9882612be9565b9050919050565b6000612baa82612be9565b9050919050565b60008115159050919050565b60007fffffffff0000000000000000000000000000000000000000000000000000000082169050919050565b600073ffffffffffffffffffffffffffffffffffffffff82169050919050565b6000819050919050565b82818337600083830152505050565b60005b83811015612c40578082015181840152602081019050612c25565b83811115612c4f576000848401525b50505050565b60006002820490506001821680612c6d57607f821691505b60208210811415612c8157612c80612d90565b5b50919050565b612c9082612dee565b810181811067ffffffffffffffff82111715612caf57612cae612dbf565b5b80604052505050565b6000612cc382612c09565b91507fffffffffffffffffffffffffffffffffffffffffffffffffffffffffffffffff821415612cf657612cf5612d32565b5b600182019050919050565b6000612d0c82612c09565b9150612d1783612c09565b925082612d2757612d26612d61565b5b828206905092915050565b7f4e487b7100000000000000000000000000000000000000000000000000000000600052601160045260246000fd5b7f4e487b7100000000000000000000000000000000000000000000000000000000600052601260045260246000fd5b7f4e487b7100000000000000000000000000000000000000000000000000000000600052602260045260246000fd5b7f4e487b7100000000000000000000000000000000000000000000000000000000600052604160045260246000fd5b6000601f19601f8301169050919050565b7f4552433732313a207472616e7366657220746f206e6f6e20455243373231526560008201527f63656976657220696d706c656d656e7465720000000000000000000000000000602082015250565b7f4f776e61626c653a206e6577206f776e657220697320746865207a65726f206160008201527f6464726573730000000000000000000000000000000000000000000000000000602082015250565b7f4552433732313a207472616e736665722066726f6d20696e636f72726563742060008201527f6f776e6572000000000000000000000000000000000000000000000000000000602082015250565b7f4552433732313a20746f6b656e20616c7265616479206d696e74656400000000600082015250565b7f4552433732313a207472616e7366657220746f20746865207a65726f2061646460008201527f7265737300000000000000000000000000000000000000000000000000000000602082015250565b7f4552433732313a20617070726f766520746f2063616c6c657200000000000000600082015250565b7f4552433732313a206f70657261746f7220717565727920666f72206e6f6e657860008201527f697374656e7420746f6b656e0000000000000000000000000000000000000000602082015250565b7f4552433732313a20617070726f76652063616c6c6572206973206e6f74206f7760008201527f6e6572206e6f7220617070726f76656420666f7220616c6c0000000000000000602082015250565b7f4552433732313a2062616c616e636520717565727920666f7220746865207a6560008201527f726f206164647265737300000000000000000000000000000000000000000000602082015250565b7f4552433732313a206f776e657220717565727920666f72206e6f6e657869737460008201527f656e7420746f6b656e0000000000000000000000000000000000000000000000602082015250565b7f45524337323155524953746f726167653a2055524920736574206f66206e6f6e60008201527f6578697374656e7420746f6b656e000000000000000000000000000000000000602082015250565b7f4552433732313a206d696e7420746f20746865207a65726f2061646472657373600082015250565b7f45524337323155524953746f726167653a2055524920717565727920666f722060008201527f6e6f6e6578697374656e7420746f6b656e000000000000000000000000000000602082015250565b7f4552433732313a20617070726f76656420717565727920666f72206e6f6e657860008201527f697374656e7420746f6b656e0000000000000000000000000000000000000000602082015250565b7f4f776e61626c653a2063616c6c6572206973206e6f7420746865206f776e6572600082015250565b7f4552433732314d657461646174613a2055524920717565727920666f72206e6f60008201527f6e6578697374656e7420746f6b656e0000000000000000000000000000000000602082015250565b7f4552433732313a20617070726f76616c20746f2063757272656e74206f776e6560008201527f7200000000000000000000000000000000000000000000000000000000000000602082015250565b7f4552433732313a207472616e736665722063616c6c6572206973206e6f74206f60008201527f776e6572206e6f7220617070726f766564000000000000000000000000000000602082015250565b6132fe81612b8d565b811461330957600080fd5b50565b61331581612bb1565b811461332057600080fd5b50565b61332c81612bbd565b811461333757600080fd5b50565b61334381612c09565b811461334e57600080fd5b5056fea264697066735822122047ee5e267e70ab0c443e8ceccccaae30d19bc8fdd9774566dabb25ace186982364736f6c63430008010033",
  "linkReferences": {},
  "deployedLinkReferences": {}
}